00BDIN9999BOVESPA 999920090409200904091730                                                                                                                                                                                                                                                                                                                    
0101IBOVESPA                      0441820441820457020454980455590455382009040903623420090302045538+00307+00081+00258+00412+01127+02394+02127-0282504701400406521534200000023437980000000427335882300045498                                                                                                                                                    
0102IEELETRICA                    0177030177030179560178240000000178132009040901497020090120017813+00128+00079+00080+00256+00645+01302+01649+0023101000200401601893700000000853940000000023415226400017818                                                                                                                                                    
0103IVBX2                         0037210037210038470038180038100037932009040900317420090309003793+00192+00160+00202+00421+00847+01947+01011-0291703501200305010612300000010696070000000125780226000003819                                                                                                                                                    
0104IBRX BRASIL                   0147250147250152660151610151980152292009040901219520090302015229+00342+00033+00226+00377+01030+02274+02144-0274007202000709923463500000026790910000000452167729400015164                                                                                                                                                    
0105ITELECOM                      0011070011070011290011210011160011352009032300095320090114001116+00085-00032-00014+00119+00344+00875+00912-0162801100400001501257900000001626830000000018565505700001120                                                                                                                                                    
0106IBRX 50                       0066100066100068650068140068330068452009040900541820090302006845+00356+00039+00235+00382+01085+02393+02342-0279003501300104920442100000022753590000000411591367500006815                                                                                                                                                    
0108IGOVERNANCA                   0041970041970043290043140043200043222009040900344120090302004322+00296+00112+00308+00546+01145+02457+01690-0314213702801117819815500000023570330000000342084733000004315                                                                                                                                                    
0109ISUSTENTABIL                  0012860012860013220013150013160013192009040900103520090303001319+00252+00050+00237+00499+01096+02598+01130-0305002500800403709009500000008441290000000140084540800001315                                                                                                                                                    
0110ITAG ALONG                    0053720053720055370055170055240055182009040900427220090302005518+00272+00120+00386+00645+01253+02805+01580-0288512602300715715556400000019105360000000239675267400005518                                                                                                                                                    
0111INDUSTRIAL                    0057460057460059660059380059450060232009010800463320090309005938+00334+00028+00224+00442+01081+02817+01189-0433203800900305006334000000007437960000000073705529200005936                                                                                                                                                    
0112SMALL CAP                     0005440005440005640005590005590005572009040900043820090309000557+00240+00277+00618+00925+01570+02719+01289/0000004601500406505835000000008827300000000066995450000000559                                                                                                                                                    
0113MIDLARGE CAP                  0006710006710006960006910006930006942009040900055420090120000694+00343+00023+00211+00360+01012+02276+02269/0000004500900505917985600000018721670000000395099526200000691                                                                                                                                                    
0114ICONSUMO                      0007830007830008150008090008090008052009040900065620090309000805+00279+00153+00395+00509+01037+02261+01539-0239501900300202403369300000003449080000000048135255700000809                                                                                                                                                    
0115IMOBILIARIO                   0004250004110004430004290004220004252009040800027420090302000416-00200+00567+00421+00779+01804+04797+03545-0497600900500001401637100000002259210000000018609759500000427                                                                                                                                                    
0202LOTE PADRAO                   ABC BRASIL  PN  EJ  N2 ABCB4       010VISTA          0000000000061500000000615000000006000000000060900000000604-001780000000060400000000605000540000000003135000000000019080020000000000000000000000MOEDA CORRENTE 00000010000000000000BRABCBACNPR41060               0000000178                                            
0202LOTE PADRAO                   ABNOTE      ON      NM ABNB3       010VISTA          0000000000100000000001048000000009850000000100500000001024+002500000000101000000001024001440000000004950000000000049759720000000000000000000000MOEDA CORRENTE 00000010000000000000BRABNBACNOR41110               0000000250                                            
0202LOTE PADRAO                   ABYARA      ON      NM ABYA3       010VISTA          0000000000016800000000175000000001680000000017200000000172+002990000000017200000000173001320000000002186000000000003755810000000000000000000000MOEDA CORRENTE 00000010000000000000BRABYAACNOR31030               0000000299                                            
0202LOTE PADRAO                   ACO ALTONA  ON         EALT3       010VISTA          0000000000000000000000000000000000000000000000000000000000/000000000000000000000010000000000000000000000000000000000000000000000000000000000000MOEDA CORRENTE 00000010000000000000BREALTACNOR41220               0000000000                                            
0202LOTE PADRAO                   ACO ALTONA  PN         EALT4       010VISTA          0000000000394000000003940000000039400000000394000000003940=000000000000380200000003940000020000000000115000000000004531000000000000000000000000MOEDA CORRENTE 00000010000000000000BREALTACNPR11220               0000000000                                            
0202LOTE PADRAO                   ACOS VILL   ON         AVIL3       010VISTA          0000000000005700000000057000000000550000000005600000000057=000000000000005600000000057000530000000002520000000000001417900000000000000000000000MOEDA CORRENTE 00000010000000000000BRAVILACNOR11760               0000000000                                            
0202LOTE PADRAO                   AES ELPA    ON         AELP3       010VISTA          0000000000290000000003000000000029000000000294000000003000+003480000000260000000003000000050000000000010000000000000293980000000000000000000000MOEDA CORRENTE 00000010000000000000BRAELPACNOR21090               0000000348                                            
0202LOTE PADRAO                   AES TIETE   ON         GETI3       010VISTA          0000000000158000000001585000000015570000000157300000001557-001260000000155700000001570000560000000000896000000000014094400000000000000000000000MOEDA CORRENTE 00000010000000000000BRGETIACNOR71320               0000000126                                            
0202LOTE PADRAO                   AES TIETE   PN         GETI4       010VISTA          0000000000183000000001842000000018020000000182600000001802+000270000000180200000001818008130000000003174000000000057971070000000000000000000000MOEDA CORRENTE 00000010000000000000BRGETIACNPR41320               0000000027                                            
0202LOTE PADRAO                   AFLUENTE    ON  ED     AFLU3       010VISTA          0000000000000000000000000000000000000000000000000000000000/000000000000118100000001598000000000000000000000000000000000000000000000000000000000MOEDA CORRENTE 00000010000000000000BRAFLUACNOR91060               0000000000                                            
0202LOTE PADRAO                   AFLUENTE    PNA ED     AFLU5       010VISTA          0000000000000000000000000000000000000000000000000000000000/000000000000080100000000000000000000000000000000000000000000000000000000000000000000MOEDA CORRENTE 00000010000000000000BRAFLUACNPA21060               0000000000                                            
0202LOTE PADRAO                   AGCONCESSOESON      MB ANDG3B      010VISTA          0000000000000000000000000000000000000000000000000000000000/000000000000060000000000000000000000000000000000000000000000000000000000000000000000MOEDA CORRENTE 00000010000000000000BRANDGACNOR91100               0000000000                                            
0202LOTE PADRAO                   AGCONCESSOESPN      MB ANDG4B      010VISTA          0000000000000000000000000000000000000000000000000000000000/000000000000060000000000000000000000000000000000000000000000000000000000000000000000MOEDA CORRENTE 00000010000000000000BRANDGACNPR61100               0000000000                                            
0202LOTE PADRAO                   AGRA INCORP ON      NM AGIN3       010VISTA          0000000000015200000000154000000001430000000014900000000154+004050000000015300000000154002310000000025290000000000037607640000000000000000000000MOEDA CORRENTE 00000010000000000000BRAGINACNOR81010               0000000405                                            
0202LOTE PADRAO                   AGRENCO     DR3        AGEN11      010VISTA          0000000000004400000000046000000000440000000004500000000045+004650000000004400000000045002870000000023109000000000010332220000000000000000000000MOEDA CORRENTE 00000010000000000000BRAGENBDR0011000               0000000465                                            
0202LOTE PADRAO                   ALFA CONSORCON         BRGE3       010VISTA          0000000000000000000000000000000000000000000000000000000000/000000000000044000000001000000000000000000000000000000000000000000000000000000000000MOEDA CORRENTE 00000010000000000000BRBRGEACNOR61880               0000000000                                            
0202LOTE PADRAO                   ALFA CONSORCPNA        BRGE5       010VISTA          0000000000000000000000000000000000000000000000000000000000/000000000000042400000000000000000000000000000000000000000000000000000000000000000000MOEDA CORRENTE 00000010000000000000BRBRGEACNPA91880               0000000000                                            
0202LOTE PADRAO                   ALFA CONSORCPNB        BRGE6       010VISTA          0000000000000000000000000000000000000000000000000000000000/000000000000050000000001000000000000000000000000000000000000000000000000000000000000MOEDA CORRENTE 00000010000000000000BRBRGEACNPB71890               0000000000                                            
0202LOTE PADRAO                   ALFA CONSORCPNC        BRGE7       010VISTA          0000000000000000000000000000000000000000000000000000000000/000000000000040800000000000000000000000000000000000000000000000000000000000000000000MOEDA CORRENTE 00000010000000000000BRBRGEACNPC51900               0000000000                                            
0202LOTE PADRAO                   ALFA CONSORCPND        BRGE8       010VISTA          0000000000040900000000409000000004090000000040900000000409=000000000000040800000000000000010000000000001000000000000004090000000000000000000000MOEDA CORRENTE 00000010000000000000BRBRGEACNPD31910               0000000000                                            
0202LOTE PADRAO                   ALFA CONSORCPNE        BRGE11      010VISTA          0000000000041400000000414000000004140000000041400000000414-008400000000041300000000000000020000000000010000000000000041400000000000000000000000MOEDA CORRENTE 00000010000000000000BRBRGEACNPE10820               0000000840                                            
0202LOTE PADRAO                   ALFA CONSORCPNF        BRGE12      010VISTA          0000000000000000000000000000000000000000000000000000000000/000000000000041800000001000000000000000000000000000000000000000000000000000000000000MOEDA CORRENTE 00000010000000000000BRBRGEACNPF80820               0000000000                                            
0202LOTE PADRAO                   ALFA FINANC ON         CRIV3       010VISTA          0000000000000000000000000000000000000000000000000000000000/000000000000026800000000292000000000000000000000000000000000000000000000000000000000MOEDA CORRENTE 00000010000000000000BRCRIVACNOR41810               0000000000                                            
0202LOTE PADRAO                   ALFA FINANC PN         CRIV4       010VISTA          0000000000025600000000257000000002500000000025500000000250-000390000000024900000000256000050000000000209000000000000532130000000000000000000000MOEDA CORRENTE 00000010000000000000BRCRIVACNPR11810               0000000039                                            
0202LOTE PADRAO                   ALFA HOLDINGON         RPAD3       010VISTA          0000000000000000000000000000000000000000000000000000000000/000000000000034200000000393000000000000000000000000000000000000000000000000000000000MOEDA CORRENTE 00000010000000000000BRRPADACNOR11880               0000000000                                            
0202LOTE PADRAO                   ALFA HOLDINGPNA        RPAD5       010VISTA          0000000000000000000000000000000000000000000000000000000000/000000000000035400000001000000000000000000000000000000000000000000000000000000000000MOEDA CORRENTE 00000010000000000000BRRPADACNPA41880               0000000000                                            
0202LOTE PADRAO                   ALFA HOLDINGPNB        RPAD6       010VISTA          0000000000033600000000336000000003360000000033600000000336=000000000000033500000000398000020000000000006000000000000020160000000000000000000000MOEDA CORRENTE 00000010000000000000BRRPADACNPB21880               0000000000                                            
0202LOTE PADRAO                   ALFA INVEST ON         BRIV3       010VISTA          0000000000066500000000672000000006630000000066800000000672=000000000000066400000000673000060000000000007000000000000046790000000000000000000000MOEDA CORRENTE 00000010000000000000BRBRIVACNOR61880               0000000000                                            
0202LOTE PADRAO                   ALFA INVEST PN         BRIV4       010VISTA          0000000000060400000000604000000006040000000060400000000604-000650000000060400000000610000010000000000001000000000000006040000000000000000000000MOEDA CORRENTE 00000010000000000000BRBRIVACNPR31880               0000000065                                            
0202LOTE PADRAO                   ALIPERTI    PN         APTI4       010VISTA          0000000000000000000000000000000000000000000000000000000000/000000000002000000000150000000000000000000000000000000000000000000000000000000000000MOEDA CORRENTE 00000010000000000000BRAPTIACNPR31200               0000000000                                            
0202LOTE PADRAO                   ALL AMER LATON      N2 ALLL3       010VISTA          0000000000042000000000420000000004180000000041900000000418-001640000000040200000000425000050000000000024000000000000100620000000000000000000000MOEDA CORRENTE 00000010000000000000BRALLLACNOR61110               0000000164                                            
0202LOTE PADRAO                   ALL AMER LATPN      N2 ALLL4       010VISTA          0000000000018600000000199000000001850000000019100000000186+006280000000017100000000193000230000000000073000000000000139340000000000000000000000MOEDA CORRENTE 00000010000000000000BRALLLACNPR31100               0000000628                                            
0202LOTE PADRAO                   ALL AMER LATUNT     N2.ALLL11      010VISTA          0000000000117000000001243000000011350000000120100000001135-000430000000113000000001135037390000000027692000000000332559240000000000000000000000MOEDA CORRENTE 00000010000000000000BRALLLCDAM101070               0000000043                                            
0202LOTE PADRAO                   ALPARGATAS  ON      N1 ALPA3       010VISTA          0000000000000000000000000000000000000000000000000000000000/000000000000495100000005499000000000000000000000000000000000000000000000000000000000MOEDA CORRENTE 00000010000000000000BRALPAACNOR01820               0000000000                                            
0202LOTE PADRAO                   ALPARGATAS  PN      N1 ALPA4       010VISTA          0000000000525000000005590000000052500000000532600000005590+003320000000555000000005599000210000000000133000000000007083780000000000000000000000MOEDA CORRENTE 00000010000000000000BRALPAACNPR71820               0000000332                                            
0202LOTE PADRAO                   AMAZONIA    ON         BAZA3       010VISTA          0000000000006000000000061000000000580000000005900000000058-003330000000005800000000059000920000000004100000000000002426500000000000000000000000MOEDA CORRENTE 00000010000000000000BRBAZAACNOR01550               0000000333                                            
0202LOTE PADRAO                   AMBEV       ON         AMBV3       010VISTA          0000000000930900000009449000000091300000000931800000009449+004610000000924800000009458000470000000000091000000000008479010000000000000000000000MOEDA CORRENTE 00000010000000000000BRAMBVACNOR41320               0000000461                                            
0202LOTE PADRAO                   AMBEV       PN        .AMBV4       010VISTA          0000000001120000000011450000000110820000001129100000011310+003570000001131000000011350017850000000004670000000000527284450000000000000000000000MOEDA CORRENTE 00000010000000000000BRAMBVACNPR11320               0000000357                                            
0202LOTE PADRAO                   AMERICEL    ON         AMCE3       010VISTA          0000000000000000000000000000000000000000000000000000000000/000000000000002300000001800000000000000000000000000000000000000000000000000000000000MOEDA CORRENTE 00000010000000000000BRAMCEACNOR81060               0000000000                                            
0202LOTE PADRAO                   AMIL        ON      NM AMIL3       010VISTA          0000000000071500000000715000000006900000000069400000000700=000000000000069500000000700002310000000003440000000000023889790000000000000000000000MOEDA CORRENTE 00000010000000000000BRAMILACNOR01020               0000000000                                            
0202LOTE PADRAO                   AMPLA ENERG ON *       CBEE3       010VISTA          0000000000008000000000080000000000800000000008000000000080=000000000000007900000000081000040000000100000000000000000080000000000000000000000000MOEDA CORRENTE 00010000000000000000BRCBEEACNOR31430               0000000000                                            
0202LOTE PADRAO                   AMPLA INVESTON *       AMPI3       010VISTA          0000000000000000000000000000000000000000000000000000000000/000000000000220000000004500000000000000000000000000000000000000000000000000000000000MOEDA CORRENTE 00010000000000000000BRAMPIACNOR11020               0000000000                                            
0202LOTE PADRAO                   ANHANGUERA  UNT     N2 AEDU11      010VISTA          0000000000113000000001200000000011300000000114300000001200+006190000000115000000001200000260000000002885000000000032970520000000000000000000000MOEDA CORRENTE 00000010000000000000BRAEDUCDAM181020               0000000619                                            
0202LOTE PADRAO                   ARACRUZ     ON      N1 ARCZ3       010VISTA          0000000000148600000001489000000014860000000148600000001489-000060000000148600000001489000160000000000602000000000008945780000000000000000000000MOEDA CORRENTE 00000010000000000000BRARCZACNOR21520               0000000006                                            
0202LOTE PADRAO                   ARACRUZ     PNA     N1 ARCZ5       010VISTA          0000000000000000000000000000000000000000000000000000000000/000000000000040000000001400000000000000000000000000000000000000000000000000000000000MOEDA CORRENTE 00000010000000000000BRARCZACNPA51530               0000000000                                            
0202LOTE PADRAO                   ARACRUZ     PNB     N1.ARCZ6       010VISTA          0000000000019600000000205000000001960000000020100000000204+006250000000020200000000204029220000000122211000000000245503940000000000000000000000MOEDA CORRENTE 00000010000000000000BRARCZACNPB31520               0000000625                                            
0202LOTE PADRAO                   ARTHUR LANGEON         ARLA3       010VISTA          0000000000021900000000219000000002190000000021900000000219+014650000000018000000000220000030000000000008000000000000017520000000000000000000000MOEDA CORRENTE 00000010000000000000BRARLAACNOR61280               0000001465                                            
0202LOTE PADRAO                   ARTHUR LANGEPN         ARLA4       010VISTA          0000000000030700000000378000000003070000000033100000000378+008000000000030700000000390000030000000000003000000000000009920000000000000000000000MOEDA CORRENTE 00000010000000000000BRARLAACNPR31280               0000000800                                            
0202LOTE PADRAO                   AZEVEDO     ON         AZEV3       010VISTA          0000000000000000000000000000000000000000000000000000000000/000000000000020000000000000000000000000000000000000000000000000000000000000000000000MOEDA CORRENTE 00000010000000000000BRAZEVACNOR01120               0000000000                                            
0202LOTE PADRAO                   AZEVEDO     PN         AZEV4       010VISTA          0000000000000000000000000000000000000000000000000000000000/000000000001000500000090000000000000000000000000000000000000000000000000000000000000MOEDA CORRENTE 00000010000000000000BRAZEVACNPR71120               0000000000                                            
0202LOTE PADRAO                   B2W VAREJO  ON      NM.BTOW3       010VISTA          0000000000263200000002925000000026320000000280800000002690+004300000000268500000002690039960000000026817000000000752892650000000000000000000000MOEDA CORRENTE 00000010000000000000BRBTOWACNOR81020               0000000430                                            
0202LOTE PADRAO                   BAHEMA      ON         BAHI3       010VISTA          0000000000000000000000000000000000000000000000000000000000/000000000000480000000011200000000000000000000000000000000000000000000000000000000000MOEDA CORRENTE 00000010000000000000BRBAHIACNOR10570               0000000000                                            
0202LOTE PADRAO                   BAHEMA      PN         BAHI4       010VISTA          0000000000000000000000000000000000000000000000000000000000/000000000000900100000009800000000000000000000000000000000000000000000000000000000000MOEDA CORRENTE 00000010000000000000BRBAHIACNPR80500               0000000000                                            
0202LOTE PADRAO                   BAN ARMAZENSON         CBAG3       010VISTA          0000000000000000000000000000000000000000000000000000000000/000000000000200000000000000000000000000000000000000000000000000000000000000000000000MOEDA CORRENTE 00000010000000000000BRCBAGACNOR60280               0000000000                                            
0202LOTE PADRAO                   BANESE      ON         BGIP3       010VISTA          0000000000000000000000000000000000000000000000000000000000/000000000000130000000003000000000000000000000000000000000000000000000000000000000000MOEDA CORRENTE 00000010000000000000BRBGIPACNOR11610               0000000000                                            
0202LOTE PADRAO                   BANESE      PN         BGIP4       010VISTA          0000000000122000000001220000000012120000000121600000001212-006760000000123000000001395000020000000000004000000000000048640000000000000000000000MOEDA CORRENTE 00000010000000000000BRBGIPACNPR81610               0000000676                                            
0202LOTE PADRAO                   BANESTES    ON  EJ     BEES3       010VISTA          0000000000080400000000812000000008020000000080700000000802-000610000000080200000000808000430000000000312000000000002516610000000000000000000000MOEDA CORRENTE 00000010000000000000BRBEESACNOR91900               0000000061                                            
0202LOTE PADRAO                   BANESTES    PN  EJ     BEES4       010VISTA          0000000000073000000000731000000007300000000073100000000730=000000000000073000000000740000040000000000021000000000000153420000000000000000000000MOEDA CORRENTE 00000010000000000000BRBEESACNPR61150               0000000000                                            
0202LOTE PADRAO                   BANRISUL    ON  ED  N1 BRSR3       010VISTA          0000000000000000000000000000000000000000000000000000000000/000000000000076000000000875000000000000000000000000000000000000000000000000000000000MOEDA CORRENTE 00000010000000000000BRBRSRACNOR31060               0000000000                                            
0202LOTE PADRAO                   BANRISUL    PNA ED  N1 BRSR5       010VISTA          0000000000000000000000000000000000000000000000000000000000/000000000000070100000000830000000000000000000000000000000000000000000000000000000000MOEDA CORRENTE 00000010000000000000BRBRSRACNPA61100               0000000000                                            
0202LOTE PADRAO                   BANRISUL    PNB ED  N1 BRSR6       010VISTA          0000000000067600000000709000000006750000000069300000000698+004960000000069700000000698009390000000033938000000000235092930000000000000000000000MOEDA CORRENTE 00000010000000000000BRBRSRACNPB41090               0000000496                                            
0202LOTE PADRAO                   BARDELLA    ON         BDLL3       010VISTA          0000000000000000000000000000000000000000000000000000000000/000000000001000000000020000000000000000000000000000000000000000000000000000000000000MOEDA CORRENTE 00000010000000000000BRBDLLACNOR11450               0000000000                                            
0202LOTE PADRAO                   BARDELLA    PN         BDLL4       010VISTA          0000000001440000000015190000000144000000001472200000015190+005190000001020000000015090000040000000000004000000000000588890000000000000000000000MOEDA CORRENTE 00000010000000000000BRBDLLACNPR81450               0000000519                                            
0202LOTE PADRAO                   BATTISTELLA ON         BTTL3       010VISTA          0000000000008100000000081000000000810000000008100000000081+009450000000007500000000081000020000000000030000000000000024300000000000000000000000MOEDA CORRENTE 00000010000000000000BRBTTLACNOR01050               0000000945                                            
0202LOTE PADRAO                   BATTISTELLA PN         BTTL4       010VISTA          0000000000003600000000037000000000350000000003600000000035+002940000000003500000000036000360000000001070000000000000382040000000000000000000000MOEDA CORRENTE 00000010000000000000BRBTTLACNPR71050               0000000294                                            
0202LOTE PADRAO                   BAUMER      ON         BALM3       010VISTA          0000000000000000000000000000000000000000000000000000000000/000000000000000300000002500000000000000000000000000000000000000000000000000000000000MOEDA CORRENTE 00000010000000000000BRBALMACNOR50370               0000000000                                            
0202LOTE PADRAO                   BAUMER      PN         BALM4       010VISTA          0000000000000000000000000000000000000000000000000000000000/000000000000000300000003450000000000000000000000000000000000000000000000000000000000MOEDA CORRENTE 00000010000000000000BRBALMACNPR20380               0000000000                                            
0202LOTE PADRAO                   BEMATECH    ON  ED  NM BEMA3       010VISTA          0000000000059200000000610000000005850000000059500000000594+000670000000059000000000595000710000000002684000000000015979860000000000000000000000MOEDA CORRENTE 00000010000000000000BRBEMAACNOR01040               0000000067                                            
0202LOTE PADRAO                   BIC MONARK  ON         BMKS3       010VISTA          0000000000000000000000000000000000000000000000000000000000/000000000004500000000055000000000000000000000000000000000000000000000000000000000000MOEDA CORRENTE 00000010000000000000BRBMKSACNOR91500               0000000000                                            
0202LOTE PADRAO                   BICBANCO    ON      N1 BICB3       010VISTA          0000000000052700000000527000000005270000000052700000000527-001490000000050800000000550000040000000000010000000000000052700000000000000000000000MOEDA CORRENTE 00000010000000000000BRBICBACNOR01070               0000000149                                            
0202LOTE PADRAO                   BICBANCO    PN      N1 BICB4       010VISTA          0000000000054700000000548000000005180000000052800000000524-004020000000052000000000524004270000000006383000000000033733570000000000000000000000MOEDA CORRENTE 00000010000000000000BRBICBACNPR71070               0000000402                                            
0202LOTE PADRAO                   BIOMM       ON         BIOM3       010VISTA          0000000000000000000000000000000000000000000000000000000000/000000000000014000000002300000000000000000000000000000000000000000000000000000000000MOEDA CORRENTE 00000010000000000000BRBIOMACNOR21000               0000000000                                            
0202LOTE PADRAO                   BIOMM       PN         BIOM4       010VISTA          0000000000000000000000000000000000000000000000000000000000/000000000000014100000000245000000000000000000000000000000000000000000000000000000000MOEDA CORRENTE 00000010000000000000BRBIOMACNPR91000               0000000000                                            
0202LOTE PADRAO                   BMF BOVESPA ON      NM.BVMF3       010VISTA          0000000000085000000000868000000008440000000085700000000855+004520000000085400000000855071680000000237757000000002036778610000000000000000000000MOEDA CORRENTE 00000010000000000000BRBVMFACNOR31020               0000000452                                            
0202LOTE PADRAO                   BOMBRIL     PN         BOBR4       010VISTA          0000000000036000000000365000000003600000000036300000000365+000270000000036000000000365000060000000000035000000000000126980000000000000000000000MOEDA CORRENTE 00000010000000000000BRBOBRACNPR31270               0000000027                                            
0202LOTE PADRAO                   BR BROKERS  ON      NM BBRK3       010VISTA          0000000000014100000000154000000001400000000014700000000146+007350000000014600000000147001650000000015575000000000022841580000000000000000000000MOEDA CORRENTE 00000010000000000000BRBBRKACNOR41020               0000000735                                            
0202LOTE PADRAO                   BR MALLS PARON      NM BRML3       010VISTA          0000000000129000000001338000000012470000000129000000001299+003010000000129500000001299002310000000003234000000000041714850000000000000000000000MOEDA CORRENTE 00000010000000000000BRBRMLACNOR91000               0000000301                                            
0202LOTE PADRAO                   BRADESCO    ON  ED  N1 BBDC3       010VISTA          0000000000209700000002176000000020970000000213000000002155+004100000000215500000002175001640000000000749000000000015956650000000000000000000000MOEDA CORRENTE 00000010000000000000BRBBDCACNOR15340               0000000410                                            
0202LOTE PADRAO                   BRADESCO    PN  ED  N1.BBDC4       010VISTA          0000000000258000000002650000000025800000000261600000002645+004050000000264500000002648087040000000066235000000001732552440000000000000000000000MOEDA CORRENTE 00000010000000000000BRBBDCACNPR85340               0000000405                                            
0202LOTE PADRAO                   BRADESPAR   ON      N1 BRAP3       010VISTA          0000000000215000000002300000000021500000000221600000002300+008280000000220100000002300000130000000000070000000000001550980000000000000000000000MOEDA CORRENTE 00000010000000000000BRBRAPACNOR51150               0000000828                                            
0202LOTE PADRAO                   BRADESPAR   PN      N1.BRAP4       010VISTA          0000000000243000000002500000000024250000000246700000002485+004800000000246500000002485025630000000011318000000000279240420000000000000000000000MOEDA CORRENTE 00000010000000000000BRBRAPACNPR21150               0000000480                                            
0202LOTE PADRAO                   BRASCAN RES ON      NM BISA3       010VISTA          0000000000023600000000255000000002360000000024800000000247+003780000000024600000000247003580000000013963000000000034688980000000000000000000000MOEDA CORRENTE 00000010000000000000BRBISAACNOR81030               0000000378                                            
0202LOTE PADRAO                   BRASIL      ON      NM.BBAS3       010VISTA          0000000000177500000001775000000016500000000169200000001686-002820000000168600000001687170540000000201571000000003409964980000000000000000000000MOEDA CORRENTE 00000010000000000000BRBBASACNOR32030               0000000282                                            
0202LOTE PADRAO                   BRASIL T PARON      N1.BRTP3       010VISTA          0000000000619900000006248000000061510000000617900000006200+000320000000619900000006200004720000000004458000000000275437880000000000000000000000MOEDA CORRENTE 00000010000000000000BRBRTPACNOR51260               0000000032                                            
0202LOTE PADRAO                   BRASIL T PARPN      N1.BRTP4       010VISTA          0000000000169900000001700000000016460000000167700000001669+001450000000165400000001669009740000000003863000000000064794670000000000000000000000MOEDA CORRENTE 00000010000000000000BRBRTPACNPR21260               0000000145                                            
0202LOTE PADRAO                   BRASIL TELECON      N1 BRTO3       010VISTA          0000000000000000000000000000000000000000000000000000000000/000000000000575000000005934000000000000000000000000000000000000000000000000000000000MOEDA CORRENTE 00000010000000000000BRBRTOACNOR81220               0000000000                                            
0202LOTE PADRAO                   BRASIL TELECPN      N1.BRTO4       010VISTA          0000000000136600000001386000000013340000000136700000001355+001490000000135500000001360009950000000008617000000000117771340000000000000000000000MOEDA CORRENTE 00000010000000000000BRBRTOACNPR51220               0000000149                                            
0202LOTE PADRAO                   BRASILAGRO  ON      NM AGRO3       010VISTA          0000000000061000000000610000000006000000000060100000000610+001660000000060500000000610000100000000001081000000000006493710000000000000000000000MOEDA CORRENTE 00000010000000000000BRAGROACNOR71020               0000000166                                            
0202LOTE PADRAO                   BRASKEM     ON      N1 BRKM3       010VISTA          0000000000055900000000559000000005590000000055900000000559=000000000000053900000000559000050000000000050000000000000279500000000000000000000000MOEDA CORRENTE 00000010000000000000BRBRKMACNOR11070               0000000000                                            
0202LOTE PADRAO                   BRASKEM     PNA     N1.BRKM5       010VISTA          0000000000056800000000601000000005670000000058200000000591+005530000000059100000000595026490000000013667000000000079508910000000000000000000000MOEDA CORRENTE 00000010000000000000BRBRKMACNPA41070               0000000553                                            
0202LOTE PADRAO                   BRASKEM     PNB     N1 BRKM6       010VISTA          0000000000000000000000000000000000000000000000000000000000/000000000000043000000000780000000000000000000000000000000000000000000000000000000000MOEDA CORRENTE 00000010000000000000BRBRKMACNPB21060               0000000000                                            
0202LOTE PADRAO                   BRASMOTOR   ON         BMTO3       010VISTA          0000000000006200000000062000000000620000000006200000000062=000000000000005500000000062000010000000000010000000000000006200000000000000000000000MOEDA CORRENTE 00000010000000000000BRBMTOACNOR91760               0000000000                                            
0202LOTE PADRAO                   BRASMOTOR   PN         BMTO4       010VISTA          0000000000006900000000069000000000660000000006700000000067+003070000000006600000000067000180000000000570000000000000381600000000000000000000000MOEDA CORRENTE 00000010000000000000BRBMTOACNPR60610               0000000307                                            
0202LOTE PADRAO                   BRB BANCO   ON         BSLI3       010VISTA          0000000000000000000000000000000000000000000000000000000000/000000000000001000000001728000000000000000000000000000000000000000000000000000000000MOEDA CORRENTE 00000010000000000000BRBSLIACNOR51340               0000000000                                            
0202LOTE PADRAO                   BRB BANCO   PN         BSLI4       010VISTA          0000000000000000000000000000000000000000000000000000000000/000000000000130000000001597000000000000000000000000000000000000000000000000000000000MOEDA CORRENTE 00000010000000000000BRBSLIACNPR21340               0000000000                                            
0202LOTE PADRAO                   BUETTNER    ON         BUET3       010VISTA          0000000000000000000000000000000000000000000000000000000000/000000000000100000000002500000000000000000000000000000000000000000000000000000000000MOEDA CORRENTE 00000010000000000000BRBUETACNOR31350               0000000000                                            
0202LOTE PADRAO                   BUETTNER    PN         BUET4       010VISTA          0000000000000000000000000000000000000000000000000000000000/000000000000000000000002000000000000000000000000000000000000000000000000000000000000MOEDA CORRENTE 00000010000000000000BRBUETACNPR01350               0000000000                                            
0202LOTE PADRAO                   CACIQUE     ON         CIQU3       010VISTA          0000000000000000000000000000000000000000000000000000000000/000000000000051500000000798000000000000000000000000000000000000000000000000000000000MOEDA CORRENTE 00000010000000000000BRCIQUACNOR81530               0000000000                                            
0202LOTE PADRAO                   CACIQUE     PN         CIQU4       010VISTA          0000000000000000000000000000000000000000000000000000000000/000000000000051500000000690000000000000000000000000000000000000000000000000000000000MOEDA CORRENTE 00000010000000000000BRCIQUACNPR51530               0000000000                                            
0202LOTE PADRAO                   CAF BRASILIAON *       CAFE3       010VISTA          0000000000000000000000000000000000000000000000000000000000/000000000000030100000000570000000000000000000000000000000000000000000000000000000000MOEDA CORRENTE 00010000000000000000BRCAFEACNOR21210               0000000000                                            
0202LOTE PADRAO                   CAF BRASILIAPN *       CAFE4       010VISTA          0000000000010100000000101000000001010000000010100000000101+003060000000009300000000101000010000000001000000000000000001010000000000000000000000MOEDA CORRENTE 00010000000000000000BRCAFEACNPR91210               0000000306                                            
0202LOTE PADRAO                   CAMBUCI     PN         CAMB4       010VISTA          0000000000013000000000140000000001300000000013300000000140+007690000000012000000000171000030000000000003000000000000004000000000000000000000000MOEDA CORRENTE 00000010000000000000BRCAMBACNPR11140               0000000769                                            
0202LOTE PADRAO                   CAPITALPART ON      MB CPTP3B      010VISTA          0000000000000000000000000000000000000000000000000000000000/000000000000002000000000040000000000000000000000000000000000000000000000000000000000MOEDA CORRENTE 00000010000000000000BRCPTPACNOR71020               0000000000                                            
0202LOTE PADRAO                   CARAIBA MET ON         CRBM3       010VISTA          0000000000000000000000000000000000000000000000000000000000/000000000000000000000008875000000000000000000000000000000000000000000000000000000000MOEDA CORRENTE 00000010000000000000BRCRBMACNOR81220               0000000000                                            
0202LOTE PADRAO                   CARAIBA MET PNC        CRBM7       010VISTA          0000000000000000000000000000000000000000000000000000000000/000000000000000000000010000000000000000000000000000000000000000000000000000000000000MOEDA CORRENTE 00000010000000000000BRCRBMACNPC71220               0000000000                                            
0202LOTE PADRAO                   CASAN       ON  INT    CASN3       010VISTA          0000000000000000000000000000000000000000000000000000000000/000000000000012100000002000000000000000000000000000000000000000000000000000000000000MOEDA CORRENTE 00000010000000000000BRCASNACNOR61040               0000000000                                            
0202LOTE PADRAO                   CASAN       PN  INT    CASN4       010VISTA          0000000000000000000000000000000000000000000000000000000000/000000000000020000000000900000000000000000000000000000000000000000000000000000000000MOEDA CORRENTE 00000010000000000000BRCASNACNPR31040               0000000000                                            
0202LOTE PADRAO                   CC DES IMOB ON      NM CCIM3       010VISTA          0000000000023400000000243000000002320000000023700000000241+005700000000023600000000241003130000000010756000000000025527810000000000000000000000MOEDA CORRENTE 00000010000000000000BRCCIMACNOR51030               0000000570                                            
0202LOTE PADRAO                   CCR RODOVIASON      NM.CCRO3       010VISTA          0000000000245900000002549000000024000000000250000000002402+000830000000240200000002424022330000000012782000000000319544920000000000000000000000MOEDA CORRENTE 00000010000000000000BRCCROACNOR21120               0000000083                                            
0202LOTE PADRAO                   CEB         ON         CEBR3       010VISTA          0000000000179900000001799000000017990000000179900000001799+002800000000165000000001800000010000000000001000000000000017990000000000000000000000MOEDA CORRENTE 00000010000000000000BRCEBRACNOR51120               0000000280                                            
0202LOTE PADRAO                   CEB         PNA        CEBR5       010VISTA          0000000000173600000001736000000017360000000173600000001736+000340000000174000000002150000010000000000001000000000000017360000000000000000000000MOEDA CORRENTE 00000010000000000000BRCEBRACNPA81110               0000000034                                            
0202LOTE PADRAO                   CEB         PNB        CEBR6       010VISTA          0000000000000000000000000000000000000000000000000000000000/000000000000160000000001700000000000000000000000000000000000000000000000000000000000MOEDA CORRENTE 00000010000000000000BRCEBRACNPB61110               0000000000                                            
0202LOTE PADRAO                   CEDRO       ON      N1 CEDO3       010VISTA          0000000000000000000000000000000000000000000000000000000000/000000000000240000000003699000000000000000000000000000000000000000000000000000000000MOEDA CORRENTE 00000010000000000000BRCEDOACNOR80850               0000000000                                            
0202LOTE PADRAO                   CEDRO       PN      N1 CEDO4       010VISTA          0000000000000000000000000000000000000000000000000000000000/000000000000210000000004150000000000000000000000000000000000000000000000000000000000MOEDA CORRENTE 00000010000000000000BRCEDOACNPR51170               0000000000                                            
0202LOTE PADRAO                   CEEE-D      ON *    MB CEED3B      010VISTA          0000000000000000000000000000000000000000000000000000000000/000000000000020000000000330000000000000000000000000000000000000000000000000000000000MOEDA CORRENTE 00010000000000000000BRCEEDACNOR91000               0000000000                                            
0202LOTE PADRAO                   CEEE-D      PN *    MB CEED4B      010VISTA          0000000000000000000000000000000000000000000000000000000000/000000000000025000000000442000000000000000000000000000000000000000000000000000000000MOEDA CORRENTE 00010000000000000000BRCEEDACNPR61000               0000000000                                            
0202LOTE PADRAO                   CEEE-GT     ON *    MB EEEL3B      010VISTA          0000000000000000000000000000000000000000000000000000000000/000000000000020000000000333000000000000000000000000000000000000000000000000000000000MOEDA CORRENTE 00010000000000000000BREEELACNOR81010               0000000000                                            
0202LOTE PADRAO                   CEEE-GT     PN *    MB EEEL4B      010VISTA          0000000000000000000000000000000000000000000000000000000000/000000000000030000000001900000000000000000000000000000000000000000000000000000000000MOEDA CORRENTE 00010000000000000000BREEELACNPR51010               0000000000                                            
0202LOTE PADRAO                   CEG         ON *       CEGR3       010VISTA          0000000000000000000000000000000000000000000000000000000000/000000000000400000000005000000000000000000000000000000000000000000000000000000000000MOEDA CORRENTE 00010000000000000000BRCEGRACNOR41140               0000000000                                            
0202LOTE PADRAO                   CELESC      ON      N2 CLSC3       010VISTA          0000000000000000000000000000000000000000000000000000000000/000000000000480000000004900000000000000000000000000000000000000000000000000000000000MOEDA CORRENTE 00000010000000000000BRCLSCACNOR61230               0000000000                                            
0202LOTE PADRAO                   CELESC      PNA     N2 CLSC5       010VISTA          0000000000000000000000000000000000000000000000000000000000/000000000000002500000000000000000000000000000000000000000000000000000000000000000000MOEDA CORRENTE 00000010000000000000BRCLSCACNPA91240               0000000000                                            
0202LOTE PADRAO                   CELESC      PNB     N2.CLSC6       010VISTA          0000000000329600000003299000000031860000000320100000003200=000000000000319100000003200001600000000001920000000000061460120000000000000000000000MOEDA CORRENTE 00000010000000000000BRCLSCACNPB71240               0000000000                                            
0202LOTE PADRAO                   CELGPAR     ON         GPAR3       010VISTA          0000000000000000000000000000000000000000000000000000000000/000000000000100000000002800000000000000000000000000000000000000000000000000000000000MOEDA CORRENTE 00000010000000000000BRGPARACNOR41000               0000000000                                            
0202LOTE PADRAO                   CELM        ON         CELM3       010VISTA          0000000000000000000000000000000000000000000000000000000000/000000000000000000000010000000000000000000000000000000000000000000000000000000000000MOEDA CORRENTE 00000010000000000000BRCELMACNOR50260               0000000000                                            
0202LOTE PADRAO                   CELPA       PNA        CELP5       010VISTA          0000000000000000000000000000000000000000000000000000000000/000000000000118000000001320000000000000000000000000000000000000000000000000000000000MOEDA CORRENTE 00000010000000000000BRCELPACNPA11110               0000000000                                            
0202LOTE PADRAO                   CELPA       PNB        CELP6       010VISTA          0000000000000000000000000000000000000000000000000000000000/000000000000120000000000000000000000000000000000000000000000000000000000000000000000MOEDA CORRENTE 00000010000000000000BRCELPACNPB91110               0000000000                                            
0202LOTE PADRAO                   CELPA       PNC        CELP7       010VISTA          0000000000000000000000000000000000000000000000000000000000/000000000000120100000001590000000000000000000000000000000000000000000000000000000000MOEDA CORRENTE 00000010000000000000BRCELPACNPC71110               0000000000                                            
0202LOTE PADRAO                   CELPE       ON         CEPE3       010VISTA          0000000000000000000000000000000000000000000000000000000000/000000000000230000000000000000000000000000000000000000000000000000000000000000000000MOEDA CORRENTE 00000010000000000000BRCEPEACNOR31350               0000000000                                            
0202LOTE PADRAO                   CELPE       PNA        CEPE5       010VISTA          0000000000323000000003230000000032300000000323000000003230+000930000000320000000003230000010000000000001000000000000032300000000000000000000000MOEDA CORRENTE 00000010000000000000BRCEPEACNPA61350               0000000093                                            
0202LOTE PADRAO                   CELPE       PNB        CEPE6       010VISTA          0000000000323000000003230000000032300000000323000000003230+012500000000310000000000000000010000000000003000000000000096900000000000000000000000MOEDA CORRENTE 00000010000000000000BRCEPEACNPB41350               0000001250                                            
0202LOTE PADRAO                   CELUL IRANI ON         RANI3       010VISTA          0000000000000000000000000000000000000000000000000000000000/000000000000170000000002300000000000000000000000000000000000000000000000000000000000MOEDA CORRENTE 00000010000000000000BRRANIACNOR50350               0000000000                                            
0202LOTE PADRAO                   CELUL IRANI PN         RANI4       010VISTA          0000000000000000000000000000000000000000000000000000000000/000000000000180000000002350000000000000000000000000000000000000000000000000000000000MOEDA CORRENTE 00000010000000000000BRRANIACNPR20360               0000000000                                            
0202LOTE PADRAO                   CEMAR       ON      MB ENMA3B      010VISTA          0000000000067000000000680000000006660000000067200000000666+000150000000066600000000669000120000000000097000000000000651360000000000000000000000MOEDA CORRENTE 00000010000000000000BRENMAACNOR51060               0000000015                                            
0202LOTE PADRAO                   CEMAT       ON         CMGR3       010VISTA          0000000000000000000000000000000000000000000000000000000000/000000000000052100000000600000000000000000000000000000000000000000000000000000000000MOEDA CORRENTE 00000010000000000000BRCMGRACNOR71090               0000000000                                            
0202LOTE PADRAO                   CEMAT       PN         CMGR4       010VISTA          0000000000000000000000000000000000000000000000000000000000/000000000000045100000000650000000000000000000000000000000000000000000000000000000000MOEDA CORRENTE 00000010000000000000BRCMGRACNPR41090               0000000000                                            
0202LOTE PADRAO                   CEMEPE      ON         MAPT3       010VISTA          0000000000000000000000000000000000000000000000000000000000/000000000000010100000000188000000000000000000000000000000000000000000000000000000000MOEDA CORRENTE 00000010000000000000BRMAPTACNOR81050               0000000000                                            
0202LOTE PADRAO                   CEMEPE      PN         MAPT4       010VISTA          0000000000007400000000074000000000510000000006000000000051-031080000000005000000000055000030000000000008000000000000004770000000000000000000000MOEDA CORRENTE 00000010000000000000BRMAPTACNPR51050               0000003108                                            
0202LOTE PADRAO                   CEMIG       ON      N1 CMIG3       010VISTA          0000000000278000000002790000000027170000000274800000002774+002320000000275100000002774001080000000000316000000000008684090000000000000000000000MOEDA CORRENTE 00000010000000000000BRCMIGACNOR62000               0000000232                                            
0202LOTE PADRAO                   CEMIG       PN      N1.CMIG4       010VISTA          0000000000362000000003627000000035280000000357700000003540=000000000000353900000003542036090000000016959000000000606661110000000000000000000000MOEDA CORRENTE 00000010000000000000BRCMIGACNPR32000               0000000000                                            
0202LOTE PADRAO                   CESP        ON      N1 CESP3       010VISTA          0000000000125500000001255000000012280000000124800000001242+001380000000123100000001243000190000000000070000000000000873760000000000000000000000MOEDA CORRENTE 00000010000000000000BRCESPACNOR31440               0000000138                                            
0202LOTE PADRAO                   CESP        PNA     N1 CESP5       010VISTA          0000000000137000000001370000000013700000000137000000001370+001480000000132000000001395000010000000000010000000000000137000000000000000000000000MOEDA CORRENTE 00000010000000000000BRCESPACNPA61030               0000000148                                            
0202LOTE PADRAO                   CESP        PNB     N1.CESP6       010VISTA          0000000000150000000001517000000014850000000149800000001494+001970000000149400000001500035660000000019186000000000287444840000000000000000000000MOEDA CORRENTE 00000010000000000000BRCESPACNPB41030               0000000197                                            
0202LOTE PADRAO                   CIA HERING  ON      NM HGTX3       010VISTA          0000000000074500000000760000000007420000000075600000000758+003120000000075800000000759000140000000000053000000000000400580000000000000000000000MOEDA CORRENTE 00000010000000000000BRHGTXACNOR91050               0000000312                                            
0202LOTE PADRAO                   CIMOB PART  ON         GAFP3       010VISTA          0000000000000000000000000000000000000000000000000000000000/000000000000001300000000000000000000000000000000000000000000000000000000000000000000MOEDA CORRENTE 00000010000000000000BRGAFPACNOR91660               0000000000                                            
0202LOTE PADRAO                   CLARION     PN   INT   CLAN4       010VISTA          0000000000000000000000000000000000000000000000000000000000/000000000000140000000001800000000000000000000000000000000000000000000000000000000000MOEDA CORRENTE 00000010000000000000BRCLANACNPR81010               0000000000                                            
0202LOTE PADRAO                   COBRASMA    ON         CBMA3       010VISTA          0000000000000800000000008000000000080000000000800000000008-020000000000000700000000008000040000000001000000000000000080000000000000000000000000MOEDA CORRENTE 00000010000000000000BRCBMAACNOR41240               0000002000                                            
0202LOTE PADRAO                   COBRASMA    PN         CBMA4       010VISTA          0000000000000600000000007000000000060000000000600000000007+016660000000000600000000007000130000000002000000000000000124000000000000000000000000MOEDA CORRENTE 00000010000000000000BRCBMAACNPR11240               0000001666                                            
0202LOTE PADRAO                   COELBA      ON         CEEB3       010VISTA          0000000000000000000000000000000000000000000000000000000000/000000000000275900000002850000000000000000000000000000000000000000000000000000000000MOEDA CORRENTE 00000010000000000000BRCEEBACNOR31460               0000000000                                            
0202LOTE PADRAO                   COELBA      PNA        CEEB5       010VISTA          0000000000000000000000000000000000000000000000000000000000/000000000000270200000002850000000000000000000000000000000000000000000000000000000000MOEDA CORRENTE 00000010000000000000BRCEEBACNPA61400               0000000000                                            
0202LOTE PADRAO                   COELCE      ON         COCE3       010VISTA          0000000000000000000000000000000000000000000000000000000000/000000000000230000000002460000000000000000000000000000000000000000000000000000000000MOEDA CORRENTE 00000010000000000000BRCOCEACNOR01270               0000000000                                            
0202LOTE PADRAO                   COELCE      PNA        COCE5       010VISTA          0000000000241500000002420000000023900000000240600000002420+001680000000241100000002420000350000000000216000000000005197420000000000000000000000MOEDA CORRENTE 00000010000000000000BRCOCEACNPA31280               0000000168                                            
0202LOTE PADRAO                   COELCE      PNB        COCE6       010VISTA          0000000000000000000000000000000000000000000000000000000000/000000000000230000000002440000000000000000000000000000000000000000000000000000000000MOEDA CORRENTE 00000010000000000000BRCOCEACNPB11280               0000000000                                            
0202LOTE PADRAO                   COMGAS      ON         CGAS3       010VISTA          0000000000284700000002900000000028470000000287400000002900+001790000000240100000002900000020000000000002000000000000057470000000000000000000000MOEDA CORRENTE 00000010000000000000BRCGASACNOR01160               0000000179                                            
0202LOTE PADRAO                   COMGAS      PNA       .CGAS5       010VISTA          0000000000325000000003285000000032300000000325500000003275+000760000000326100000003278002030000000000873000000000028414790000000000000000000000MOEDA CORRENTE 00000010000000000000BRCGASACNPA31130               0000000076                                            
0202LOTE PADRAO                   CONFAB      ON      N1 CNFB3       010VISTA          0000000000000000000000000000000000000000000000000000000000/000000000000025000000000000000000000000000000000000000000000000000000000000000000000MOEDA CORRENTE 00000010000000000000BRCNFBACNOR10420               0000000000                                            
0202LOTE PADRAO                   CONFAB      PN      N1 CNFB4       010VISTA          0000000000042000000000436000000004200000000043100000000433+003090000000043100000000433004630000000009672000000000041684060000000000000000000000MOEDA CORRENTE 00000010000000000000BRCNFBACNPR80420               0000000309                                            
0202LOTE PADRAO                   CONST A LINDON         CALI3       010VISTA          0000000000000000000000000000000000000000000000000000000000/000000000000510000000700000000000000000000000000000000000000000000000000000000000000MOEDA CORRENTE 00000010000000000000BRCALIACNOR11260               0000000000                                            
0202LOTE PADRAO                   CONST A LINDPN         CALI4       010VISTA          0000000000000000000000000000000000000000000000000000000000/000000000000510000000045000000000000000000000000000000000000000000000000000000000000MOEDA CORRENTE 00000010000000000000BRCALIACNPR81300               0000000000                                            
0202LOTE PADRAO                   CONST BETER PNB*    MB COBE6B      010VISTA          0000000000000000000000000000000000000000000000000000000000/000000000000000000000000600000000000000000000000000000000000000000000000000000000000MOEDA CORRENTE 00010000000000000000BRCOBEACNPB30450               0000000000                                            
0202LOTE PADRAO                   CONTAX      ON  ED     CTAX3       010VISTA          0000000000000000000000000000000000000000000000000000000000/000000000000430500000004599000000000000000000000000000000000000000000000000000000000MOEDA CORRENTE 00000010000000000000BRCTAXACNOR31060               0000000000                                            
0202LOTE PADRAO                   CONTAX      PN  ED     CTAX4       010VISTA          0000000000432000000004440000000043000000000439000000004435-000310000000430000000004435000180000000000025000000000001097550000000000000000000000MOEDA CORRENTE 00000010000000000000BRCTAXACNPR01070               0000000031                                            
0202LOTE PADRAO                   COPASA      ON  INT NM CSMG3       010VISTA          0000000000227000000002355000000022360000000232900000002341+005260000000234100000002349004580000000005083000000000118400960000000000000000000000MOEDA CORRENTE 00000010000000000000BRCSMGACNOR51110               0000000526                                            
0202LOTE PADRAO                   COPEL       ON      N1 CPLE3       010VISTA          0000000000239900000002399000000023280000000239500000002350-002080000000231100000002350000410000000002373000000000056842900000000000000000000000MOEDA CORRENTE 00000010000000000000BRCPLEACNOR81190               0000000208                                            
0202LOTE PADRAO                   COPEL       PNA     N1 CPLE5       010VISTA          0000000000000000000000000000000000000000000000000000000000/000000000000205000000000000000000000000000000000000000000000000000000000000000000000MOEDA CORRENTE 00000010000000000000BRCPLEACNPA11180               0000000000                                            
0202LOTE PADRAO                   COPEL       PNB     N1.CPLE6       010VISTA          0000000000265000000002687000000026050000000264000000002687+004340000000268000000002687018170000000007043000000000185919170000000000000000000000MOEDA CORRENTE 00000010000000000000BRCPLEACNPB91160               0000000434                                            
0202LOTE PADRAO                   COR RIBEIRO PN         CORR4       010VISTA          0000000000000000000000000000000000000000000000000000000000/000000000000100000000030000000000000000000000000000000000000000000000000000000000000MOEDA CORRENTE 00000010000000000000BRCORRACNPR70120               0000000000                                            
0202LOTE PADRAO                   COSAN       ON      NM.CSAN3       010VISTA          0000000000139800000001498000000013660000000145500000001498+007760000000148200000001498017580000000015428000000000224520310000000000000000000000MOEDA CORRENTE 00000010000000000000BRCSANACNOR61040               0000000776                                            
0202LOTE PADRAO                   COSAN LTD   DR3        CZLT11      010VISTA          0000000000094600000000946000000009210000000094300000000946+006290000000088500000000949000090000000000030000000000000282790000000000000000000000MOEDA CORRENTE 00000010000000000000BRCZLTBDR0091010               0000000629                                            
0202LOTE PADRAO                   COSERN      ON         CSRN3       010VISTA          0000000000000000000000000000000000000000000000000000000000/000000000000076000000000860000000000000000000000000000000000000000000000000000000000MOEDA CORRENTE 00000010000000000000BRCSRNACNOR01310               0000000000                                            
0202LOTE PADRAO                   COSERN      PNA        CSRN5       010VISTA          0000000000000000000000000000000000000000000000000000000000/000000000000082000000000000000000000000000000000000000000000000000000000000000000000MOEDA CORRENTE 00000010000000000000BRCSRNACNPA31310               0000000000                                            
0202LOTE PADRAO                   COSERN      PNB        CSRN6       010VISTA          0000000000000000000000000000000000000000000000000000000000/000000000000080000000000000000000000000000000000000000000000000000000000000000000000MOEDA CORRENTE 00000010000000000000BRCSRNACNPB11320               0000000000                                            
0202LOTE PADRAO                   COTEMINAS   ON         CTNM3       010VISTA          0000000000037200000000372000000003700000000037000000000370-000530000000033100000000370000030000000000023000000000000085160000000000000000000000MOEDA CORRENTE 00000010000000000000BRCTNMACNOR91260               0000000053                                            
0202LOTE PADRAO                   COTEMINAS   PN         CTNM4       010VISTA          0000000000034500000000399000000003450000000036400000000365+000820000000036500000000371000510000000000458000000000001665960000000000000000000000MOEDA CORRENTE 00000010000000000000BRCTNMACNPR61250               0000000082                                            
0202LOTE PADRAO                   CPFL ENERGIAON      NM.CPFE3       010VISTA          0000000000347500000003511000000034200000000345600000003450+001170000000343600000003460021210000000007916000000000273604480000000000000000000000MOEDA CORRENTE 00000010000000000000BRCPFEACNOR01110               0000000117                                            
0202LOTE PADRAO                   CR2         ON      NM CRDE3       010VISTA          0000000000033500000000370000000003300000000035400000000361+009390000000036100000000370000610000000000285000000000001008410000000000000000000000MOEDA CORRENTE 00000010000000000000BRCRDEACNOR11030               0000000939                                            
0202LOTE PADRAO                   CREMER      ON      NM CREM3       010VISTA          0000000000077000000000790000000007690000000077200000000769+001310000000076500000000769000230000000000248000000000001915160000000000000000000000MOEDA CORRENTE 00000010000000000000BRCREMACNOR21420               0000000131                                            
0202LOTE PADRAO                   CRUZEIRO SULPN      N1 CZRS4       010VISTA          0000000000057200000000572000000005650000000057100000000565+000170000000055700000000565000220000000000193000000000001102900000000000000000000000MOEDA CORRENTE 00000010000000000000BRCZRSACNPR11060               0000000017                                            
0202LOTE PADRAO                   CSU CARDSYSTON      NM CARD3       010VISTA          0000000000037800000000385000000003700000000038100000000385+005470000000037500000000385000170000000000047000000000000179110000000000000000000000MOEDA CORRENTE 00000010000000000000BRCARDACNOR91000               0000000547                                            
0202LOTE PADRAO                   CYRE COM-CCPON      NM CCPR3       010VISTA          0000000000082600000000840000000008050000000083700000000830+000480000000083000000000848000120000000000117000000000000979290000000000000000000000MOEDA CORRENTE 00000010000000000000BRCCPRACNOR91020               0000000048                                            
0202LOTE PADRAO                   CYRELA REALTON      NM.CYRE3       010VISTA          0000000000128000000001286000000011200000000120500000001136-007260000000113600000001140058120000000056102000000000676082890000000000000000000000MOEDA CORRENTE 00000010000000000000BRCYREACNOR71200               0000000726                                            
0202LOTE PADRAO                   D H B       ON         DHBI3       010VISTA          0000000000000000000000000000000000000000000000000000000000/000000000000000300000008500000000000000000000000000000000000000000000000000000000000MOEDA CORRENTE 00000010000000000000BRDHBIACNOR51140               0000000000                                            
0202LOTE PADRAO                   D H B       PN         DHBI4       010VISTA          0000000000000000000000000000000000000000000000000000000000/000000000000000300000002230000000000000000000000000000000000000000000000000000000000MOEDA CORRENTE 00000010000000000000BRDHBIACNPR21140               0000000000                                            
0202LOTE PADRAO                   DASA        ON      NM DASA3       010VISTA          0000000000268000000002815000000026800000000277200000002790+004290000000278500000002790001270000000001519000000000042103360000000000000000000000MOEDA CORRENTE 00000010000000000000BRDASAACNOR11020               0000000429                                            
0202LOTE PADRAO                   DAYCOVAL    PN  EJ  N1 DAYC4       010VISTA          0000000000051400000000537000000005140000000053200000000537+004470000000053500000000537000420000000001713000000000009109260000000000000000000000MOEDA CORRENTE 00000010000000000000BRDAYCACNPR21080               0000000447                                            
0202LOTE PADRAO                   DIMED       ON         PNVL3       010VISTA          0000000000000000000000000000000000000000000000000000000000/000000000000290000000003100000000000000000000000000000000000000000000000000000000000MOEDA CORRENTE 00000010000000000000BRPNVLACNOR91690               0000000000                                            
0202LOTE PADRAO                   DIMED       PN         PNVL4       010VISTA          0000000000000000000000000000000000000000000000000000000000/000000000000289900000003050000000000000000000000000000000000000000000000000000000000MOEDA CORRENTE 00000010000000000000BRPNVLACNPR61690               0000000000                                            
0202LOTE PADRAO                   DIXIE TOGA  PN         DXTG4       010VISTA          0000000000016000000000170000000001600000000016100000000170+006910000000014200000000180000030000000000014000000000000022500000000000000000000000MOEDA CORRENTE 00000010000000000000BRDXTGACNPR51130               0000000691                                            
0202LOTE PADRAO                   DOC IMBITUBAON         IMBI3       010VISTA          0000000000000000000000000000000000000000000000000000000000/000000000000000300000000189000000000000000000000000000000000000000000000000000000000MOEDA CORRENTE 00000010000000000000BRIMBIACNOR40190               0000000000                                            
0202LOTE PADRAO                   DOC IMBITUBAPN         IMBI4       010VISTA          0000000000010900000000109000000001030000000010600000000106-005350000000010600000000108000160000000000390000000000000414600000000000000000000000MOEDA CORRENTE 00000010000000000000BRIMBIACNPR11110               0000000535                                            
0202LOTE PADRAO                   DOCAS       ON         DOCA3       010VISTA          0000000000000000000000000000000000000000000000000000000000/000000000000200000000002999000000000000000000000000000000000000000000000000000000000MOEDA CORRENTE 00000010000000000000BRDOCAACNOR61430               0000000000                                            
0202LOTE PADRAO                   DOCAS       PN         DOCA4       010VISTA          0000000000000000000000000000000000000000000000000000000000/000000000000205000000005000000000000000000000000000000000000000000000000000000000000MOEDA CORRENTE 00000010000000000000BRDOCAACNPR31430               0000000000                                            
0202LOTE PADRAO                   DOHLER      ON  ED     DOHL3       010VISTA          0000000000000000000000000000000000000000000000000000000000/000000000000200000000000000000000000000000000000000000000000000000000000000000000000MOEDA CORRENTE 00000010000000000000BRDOHLACNOR20460               0000000000                                            
0202LOTE PADRAO                   DOHLER      PN  ED     DOHL4       010VISTA          0000000000000000000000000000000000000000000000000000000000/000000000000200000000002590000000000000000000000000000000000000000000000000000000000MOEDA CORRENTE 00000010000000000000BRDOHLACNPR90490               0000000000                                            
0202LOTE PADRAO                   DROGASIL    ON      NM DROG3       010VISTA          0000000000118900000001200000000011890000000120000000001200+000920000000110100000001200000110000000000328000000000003935660000000000000000000000MOEDA CORRENTE 00000010000000000000BRDROGACNOR12510               0000000092                                            
0202LOTE PADRAO                   DTCOM-DIRECTON         DTCY3       010VISTA          0000000000000000000000000000000000000000000000000000000000/000000000000004800000000068000000000000000000000000000000000000000000000000000000000MOEDA CORRENTE 00000010000000000000BRDTCYACNOR51060               0000000000                                            
0202LOTE PADRAO                   DUFRYBRAS   DR3        DUFB11      010VISTA          0000000000164900000001695000000016490000000166600000001680+001810000000168000000001685001770000000003988000000000066432640000000000000000000000MOEDA CORRENTE 00000010000000000000BRDUFBBDR0081010               0000000181                                            
0202LOTE PADRAO                   DURATEX     ON      N1 DURA3       010VISTA          0000000000147900000001479000000014790000000147900000001479=000000000000130300000001555000010000000000001000000000000014790000000000000000000000MOEDA CORRENTE 00000010000000000000BRDURAACNOR11980               0000000000                                            
0202LOTE PADRAO                   DURATEX     PN      N1.DURA4       010VISTA          0000000000180600000001850000000017600000000180500000001760-002000000000175200000001760006630000000005791000000000104505020000000000000000000000MOEDA CORRENTE 00000010000000000000BRDURAACNPR81980               0000000200                                            
0202LOTE PADRAO                   ECODIESEL   ON      NM ECOD3       010VISTA          0000000000008300000000088000000000820000000008400000000082+001230000000008200000000083003940000000018612000000000015694120000000000000000000000MOEDA CORRENTE 00000010000000000000BRECODACNOR81000               0000000123                                            
0202LOTE PADRAO                   ELEKEIROZ   ON         ELEK3       010VISTA          0000000000000000000000000000000000000000000000000000000000/000000000000124000000007700000000000000000000000000000000000000000000000000000000000MOEDA CORRENTE 00000010000000000000BRELEKACNOR51130               0000000000                                            
0202LOTE PADRAO                   ELEKEIROZ   PN         ELEK4       010VISTA          0000000000000000000000000000000000000000000000000000000000/000000000000120000000001490000000000000000000000000000000000000000000000000000000000MOEDA CORRENTE 00000010000000000000BRELEKACNPR21130               0000000000                                            
0202LOTE PADRAO                   ELEKTRO     ON  ED     EKTR3       010VISTA          0000000000175000000001750000000017500000000175000000001750-000680000000125500000000000000010000000000001000000000000017500000000000000000000000MOEDA CORRENTE 00000010000000000000BREKTRACNOR01180               0000000068                                            
0202LOTE PADRAO                   ELEKTRO     PN  ED     EKTR4       010VISTA          0000000000129500000001295000000012950000000129500000001295+000380000000129500000001320000030000000000018000000000000233100000000000000000000000MOEDA CORRENTE 00000010000000000000BREKTRACNPR71180               0000000038                                            
0202LOTE PADRAO                   ELETROBRAS  ON      N1.ELET3       010VISTA          0000000000283600000002883000000027430000000281500000002790-001060000000279000000002791020200000000014205000000000399922540000000000000000000000MOEDA CORRENTE 00000010000000000000BRELETACNOR61440               0000000106                                            
0202LOTE PADRAO                   ELETROBRAS  PNA     N1 ELET5       010VISTA          0000000000000000000000000000000000000000000000000000000000/000000000000297100000004000000000000000000000000000000000000000000000000000000000000MOEDA CORRENTE 00000010000000000000BRELETACNPA90590               0000000000                                            
0202LOTE PADRAO                   ELETROBRAS  PNB     N1.ELET6       010VISTA          0000000000277500000002799000000026670000000273000000002681-002430000000268100000002695022950000000009563000000000261075840000000000000000000000MOEDA CORRENTE 00000010000000000000BRELETACNPB70590               0000000243                                            
0202LOTE PADRAO                   ELETROPAR   ON  ED     LIPR3       010VISTA          0000000000000000000000000000000000000000000000000000000000/000000000000425000000004750000000000000000000000000000000000000000000000000000000000MOEDA CORRENTE 00000010000000000000BRLIPRACNOR71060               0000000000                                            
0202LOTE PADRAO                   ELETROPAULO ON      N2 ELPL3       010VISTA          0000000000299900000002999000000029990000000299900000002999+009850000000290000000002999000010000000000001000000000000029990000000000000000000000MOEDA CORRENTE 00000010000000000000BRELPLACNOR91150               0000000985                                            
0202LOTE PADRAO                   ELETROPAULO PNA     N2 ELPL5       010VISTA          0000000000325000000003260000000032200000000323400000003220-001220000000316000000003390000030000000000005000000000000161700000000000000000000000MOEDA CORRENTE 00000010000000000000BRELPLACNPA21110               0000000122                                            
0202LOTE PADRAO                   ELETROPAULO PNB     N2.ELPL6       010VISTA          0000000000349000000003525000000034170000000346500000003419-000860000000341500000003419013390000000005799000000000200941840000000000000000000000MOEDA CORRENTE 00000010000000000000BRELPLACNPB01080               0000000086                                            
0202LOTE PADRAO                   ELUMA       ON         ELUM3       010VISTA          0000000000000000000000000000000000000000000000000000000000/000000000000000000000004000000000000000000000000000000000000000000000000000000000000MOEDA CORRENTE 00000010000000000000BRELUMACNOR71360               0000000000                                            
0202LOTE PADRAO                   ELUMA       PN         ELUM4       010VISTA          0000000000000000000000000000000000000000000000000000000000/000000000000000300000003480000000000000000000000000000000000000000000000000000000000MOEDA CORRENTE 00000010000000000000BRELUMACNPR41360               0000000000                                            
0202LOTE PADRAO                   EMAE        PN         EMAE4       010VISTA          0000000000095000000000950000000009500000000095000000000950=000000000000094000000000965000080000000000054000000000000513000000000000000000000000MOEDA CORRENTE 00000010000000000000BREMAEACNPR11040               0000000000                                            
0202LOTE PADRAO                   EMBRAER     ON      NM.EMBR3       010VISTA          0000000000088000000000934000000008610000000091500000000925+009080000000092500000000926026420000000025234000000000230874750000000000000000000000MOEDA CORRENTE 00000010000000000000BREMBRACNOR41500               0000000908                                            
0202LOTE PADRAO                   EMBRATEL PARON *       EBTP3       010VISTA          0000000000088800000000890000000008280000000088200000000888+000220000000082800000000908000050000000009000000000000000079410000000000000000000000MOEDA CORRENTE 00010000000000000000BREBTPACNOR31080               0000000022                                            
0202LOTE PADRAO                   EMBRATEL PARPN *       EBTP4       010VISTA          0000000000088500000000900000000008850000000088600000000900+001690000000090000000000914000030000000037000000000000000327750000000000000000000000MOEDA CORRENTE 00010000000000000000BREBTPACNPR01120               0000000169                                            
0202LOTE PADRAO                   ENCORPAR    ON         ECPR3       010VISTA          0000000000145000000001450000000014500000000145000000001450=000000000000130000000003200000010000000000004000000000000058000000000000000000000000MOEDA CORRENTE 00000010000000000000BRECPRACNOR51030               0000000000                                            
0202LOTE PADRAO                   ENCORPAR    PN         ECPR4       010VISTA          0000000000000000000000000000000000000000000000000000000000/000000000000120000000001349000000000000000000000000000000000000000000000000000000000MOEDA CORRENTE 00000010000000000000BRECPRACNPR21030               0000000000                                            
0202LOTE PADRAO                   ENERGIAS BR ON  ED  NM ENBR3       010VISTA          0000000000255000000002583000000024940000000255500000002530+001760000000253000000002555006850000000002545000000000065028440000000000000000000000MOEDA CORRENTE 00000010000000000000BRENBRACNOR21080               0000000176                                            
0202LOTE PADRAO                   ENERGISA    ON         ENGI3       010VISTA          0000000000000000000000000000000000000000000000000000000000/000000000000069000000000698000000000000000000000000000000000000000000000000000000000MOEDA CORRENTE 00000010000000000000BRENGIACNOR01080               0000000000                                            
0202LOTE PADRAO                   ENERGISA    PN         ENGI4       010VISTA          0000000000068900000000692000000006850000000069000000000690+000720000000069000000000698000050000000000031000000000000214030000000000000000000000MOEDA CORRENTE 00000010000000000000BRENGIACNPR71040               0000000072                                            
0202LOTE PADRAO                   EQUATORIAL  ON      NM EQTL3       010VISTA          0000000000129500000001320000000012880000000130500000001315+000380000000131500000001320001790000000000576000000000007516520000000000000000000000MOEDA CORRENTE 00000010000000000000BREQTLACNOR01060               0000000038                                            
0202LOTE PADRAO                   EST PIAUI   ON         BPIA3       010VISTA          0000000000000000000000000000000000000000000000000000000000/000000000000054000000000750000000000000000000000000000000000000000000000000000000000MOEDA CORRENTE 00000010000000000000BRBPIAACNOR41120               0000000000                                            
0202LOTE PADRAO                   ESTACIO PARTON      NM ESTC3       010VISTA          0000000000121000000001224000000011900000000120300000001209+000750000000119500000001210000740000000000426000000000005123210000000000000000000000MOEDA CORRENTE 00000010000000000000BRESTCACNOR51020               0000000075                                            
0202LOTE PADRAO                   ESTRELA     ON         ESTR3       010VISTA          0000000000069000000000690000000006900000000069000000000690+053330000000045000000002000000010000000000001000000000000006900000000000000000000000MOEDA CORRENTE 00000010000000000000BRESTRACNOR31420               0000005333                                            
0202LOTE PADRAO                   ESTRELA     PN         ESTR4       010VISTA          0000000000003800000000040000000000380000000003900000000039+002630000000003900000000040000400000000001081000000000000419980000000000000000000000MOEDA CORRENTE 00000010000000000000BRESTRACNPR01420               0000000263                                            
0202LOTE PADRAO                   ETERNIT     ON      NM ETER3       010VISTA          0000000000061700000000620000000006130000000061700000000613-000320000000061100000000613000660000000000831000000000005127770000000000000000000000MOEDA CORRENTE 00000010000000000000BRETERACNOR31950               0000000032                                            
0202LOTE PADRAO                   EVEN        ON      NM EVEN3       010VISTA          0000000000026400000000278000000002640000000027200000000276+006560000000027000000000275000520000000000827000000000002247710000000000000000000000MOEDA CORRENTE 00000010000000000000BREVENACNOR81020               0000000656                                            
0202LOTE PADRAO                   EXCELSIOR   PN         BAUH4       010VISTA          0000000000024000000000240000000002400000000024000000000240+003000000000024000000000279000020000000000005000000000000012000000000000000000000000MOEDA CORRENTE 00000010000000000000BRBAUHACNPR31080               0000000300                                            
0202LOTE PADRAO                   EZTEC       ON      NM EZTC3       010VISTA          0000000000026000000000270000000002560000000026000000000265+007280000000026500000000266001130000000001992000000000005174870000000000000000000000MOEDA CORRENTE 00000010000000000000BREZTCACNOR01010               0000000728                                            
0202LOTE PADRAO                   FAB C RENAUXON         FTRX3       010VISTA          0000000000000000000000000000000000000000000000000000000000/000000000000001500000000049000000000000000000000000000000000000000000000000000000000MOEDA CORRENTE 00000010000000000000BRFTRXACNOR01380               0000000000                                            
0202LOTE PADRAO                   FAB C RENAUXPN         FTRX4       010VISTA          0000000000002200000000023000000000220000000002300000000023=000000000000002200000000024000030000000000100000000000000022500000000000000000000000MOEDA CORRENTE 00000010000000000000BRFTRXACNPR71370               0000000000                                            
0202LOTE PADRAO                   FER C ATLANTON         VSPT3       010VISTA          0000000000000000000000000000000000000000000000000000000000/000000000000000000000000130000000000000000000000000000000000000000000000000000000000MOEDA CORRENTE 00000010000000000000BRVSPTACNOR11060               0000000000                                            
0202LOTE PADRAO                   FER HERINGERON      NM FHER3       010VISTA          0000000000036500000000380000000003650000000037200000000371+002200000000037100000000375002300000000001996000000000007425400000000000000000000000MOEDA CORRENTE 00000010000000000000BRFHERACNOR51020               0000000220                                            
0202LOTE PADRAO                   FERBASA     ON         FESA3       010VISTA          0000000000000000000000000000000000000000000000000000000000/000000000000085000000000950000000000000000000000000000000000000000000000000000000000MOEDA CORRENTE 00000010000000000000BRFESAACNOR81390               0000000000                                            
0202LOTE PADRAO                   FERBASA     PN         FESA4       010VISTA          0000000000063200000000665000000006300000000064600000000660+005430000000065800000000660002740000000005774000000000037289620000000000000000000000MOEDA CORRENTE 00000010000000000000BRFESAACNPR50350               0000000543                                            
0202LOTE PADRAO                   FIBAM       ON         FBMC3       010VISTA          0000000000000000000000000000000000000000000000000000000000/000000000000280100000000000000000000000000000000000000000000000000000000000000000000MOEDA CORRENTE 00000010000000000000BRFBMCACNOR31320               0000000000                                            
0202LOTE PADRAO                   FIBAM       PN         FBMC4       010VISTA          0000000000270000000002700000000027000000000270000000002700+001880000000271100000002780000010000000000001000000000000027000000000000000000000000MOEDA CORRENTE 00000010000000000000BRFBMCACNPR01420               0000000188                                            
0202LOTE PADRAO                   FORJA TAURUSON  INT    FJTA3       010VISTA          0000000000053800000000550000000005380000000053800000000550+010000000000045000000000550000030000000000051000000000000274500000000000000000000000MOEDA CORRENTE 00000010000000000000BRFJTAACNOR51370               0000001000                                            
0202LOTE PADRAO                   FORJA TAURUSPN  INT    FJTA4       010VISTA          0000000000050000000000519000000004940000000050700000000500+003300000000048200000000500000400000000000252000000000001278800000000000000000000000MOEDA CORRENTE 00000010000000000000BRFJTAACNPR21380               0000000330                                            
0202LOTE PADRAO                   FOSFERTIL   PN         FFTL4       010VISTA          0000000000149400000001517000000014700000000149400000001470=000000000000147000000001473008240000000007201000000000107571030000000000000000000000MOEDA CORRENTE 00000010000000000000BRFFTLACNPR71400               0000000000                                            
0202LOTE PADRAO                   FRAS-LE     ON      N1 FRAS3       010VISTA          0000000000000000000000000000000000000000000000000000000000/000000000000020500000000000000000000000000000000000000000000000000000000000000000000MOEDA CORRENTE 00000010000000000000BRFRASACNOR01180               0000000000                                            
0202LOTE PADRAO                   FRAS-LE     PN      N1 FRAS4       010VISTA          0000000000023200000000232000000002290000000023100000000231=000000000000022900000000232000170000000000489000000000001129860000000000000000000000MOEDA CORRENTE 00000010000000000000BRFRASACNPR71180               0000000000                                            
0202LOTE PADRAO                   GAFISA      ON      NM.GFSA3       010VISTA          0000000000155000000001590000000014210000000151000000001440-003090000000144000000001445036940000000027494000000000415157040000000000000000000000MOEDA CORRENTE 00000010000000000000BRGFSAACNOR31030               0000000309                                            
0202LOTE PADRAO                   GAZOLA      PN         GAZO4       010VISTA          0000000000019900000000204000000001970000000019900000000197-002950000000019600000000199000250000000000131000000000000261220000000000000000000000MOEDA CORRENTE 00000010000000000000BRGAZOACNPR70210               0000000295                                            
0202LOTE PADRAO                   GENERALSHOPPON      NM GSHP3       010VISTA          0000000000023500000000235000000002300000000023300000000234+002630000000023000000000240000160000000000313000000000000729750000000000000000000000MOEDA CORRENTE 00000010000000000000BRGSHPACNOR71000               0000000263                                            
0202LOTE PADRAO                   GER PARANAP ON         GEPA3       010VISTA          0000000000000000000000000000000000000000000000000000000000/000000000000155100000001994000000000000000000000000000000000000000000000000000000000MOEDA CORRENTE 00000010000000000000BRGEPAACNOR21120               0000000000                                            
0202LOTE PADRAO                   GER PARANAP PN         GEPA4       010VISTA          0000000000000000000000000000000000000000000000000000000000/000000000000202500000002577000000000000000000000000000000000000000000000000000000000MOEDA CORRENTE 00000010000000000000BRGEPAACNPR91170               0000000000                                            
0202LOTE PADRAO                   GERDAU      ON      N1 GGBR3       010VISTA          0000000000115600000001160000000011400000000115200000001159+004320000000115100000001159010630000000003750000000000043204170000000000000000000000MOEDA CORRENTE 00000010000000000000BRGGBRACNOR11350               0000000432                                            
0202LOTE PADRAO                   GERDAU      PN      N1.GGBR4       010VISTA          0000000000145500000001475000000014500000000146200000001470+003810000000146500000001470069890000000071126000000001039568990000000000000000000000MOEDA CORRENTE 00000010000000000000BRGGBRACNPR81350               0000000381                                            
0202LOTE PADRAO                   GERDAU MET  ON      N1 GOAU3       010VISTA          0000000000164500000001698000000016450000000167500000001698+004490000000167900000001698000270000000000097000000000001625120000000000000000000000MOEDA CORRENTE 00000010000000000000BRGOAUACNOR12160               0000000449                                            
0202LOTE PADRAO                   GERDAU MET  PN      N1.GOAU4       010VISTA          0000000000192000000001935000000019060000000192200000001935+003530000000193400000001935016960000000006581000000000126459470000000000000000000000MOEDA CORRENTE 00000010000000000000BRGOAUACNPR82160               0000000353                                            
0202LOTE PADRAO                   GLOBEX      ON         GLOB3       010VISTA          0000000000067100000000794000000006700000000074600000000777+015970000000075500000000777004560000000004947000000000036914170000000000000000000000MOEDA CORRENTE 00000010000000000000BRGLOBACNOR81140               0000001597                                            
0202LOTE PADRAO                   GOL         PN      N2.GOLL4       010VISTA          0000000000071900000000723000000006770000000071300000000705-000700000000070500000000706015510000000016005000000000114119830000000000000000000000MOEDA CORRENTE 00000010000000000000BRGOLLACNPR41160               0000000070                                            
0202LOTE PADRAO                   GP INVEST   DR3        GPIV11      010VISTA          0000000000061000000000629000000005860000000060400000000625+007020000000062500000000626002310000000012459000000000075198670000000000000000000000MOEDA CORRENTE 00000010000000000000BRGPIVBDR0031030               0000000702                                            
0202LOTE PADRAO                   GPC PART    ON         GPCP3       010VISTA          0000000000008300000000083000000000780000000007800000000078+004000000000007300000000082000060000000000101000000000000078830000000000000000000000MOEDA CORRENTE 00000010000000000000BRGPCPACNOR41040               0000000400                                            
0202LOTE PADRAO                   GRADIENTE   ON         IGBR3       010VISTA          0000000000027000000000271000000002690000000027000000000270-000730000000027000000000274000180000000000132000000000000356050000000000000000000000MOEDA CORRENTE 00000010000000000000BRIGBRACNOR70310               0000000073                                            
0202LOTE PADRAO                   GRAZZIOTIN  ON         CGRA3       010VISTA          0000000000071000000000710000000007100000000071000000000710+000990000000070400000000710000020000000000002000000000000014200000000000000000000000MOEDA CORRENTE 00000010000000000000BRCGRAACNOR20540               0000000099                                            
0202LOTE PADRAO                   GRAZZIOTIN  PN         CGRA4       010VISTA          0000000000074300000000743000000007430000000074300000000743+007360000000070000000000744000020000000000004000000000000029720000000000000000000000MOEDA CORRENTE 00000010000000000000BRCGRAACNPR90540               0000000736                                            
0202LOTE PADRAO                   GRENDENE    ON  ED  NM GRND3       010VISTA          0000000000128000000001310000000012800000000130000000001301+002360000000130000000001319000170000000002440000000000031721640000000000000000000000MOEDA CORRENTE 00000010000000000000BRGRNDACNOR31120               0000000236                                            
0202LOTE PADRAO                   GTD PART    ON      MB GTDP3B      010VISTA          0000000000000000000000000000000000000000000000000000000000/000000000000001500000000019000000000000000000000000000000000000000000000000000000000MOEDA CORRENTE 00000010000000000000BRGTDPACNOR41130               0000000000                                            
0202LOTE PADRAO                   GTD PART    PN      MB GTDP4B      010VISTA          0000000000001800000000018000000000180000000001800000000018=000000000000001800000000019000010000000000048000000000000008640000000000000000000000MOEDA CORRENTE 00000010000000000000BRGTDPACNPR11130               0000000000                                            
0202LOTE PADRAO                   GUARANI     ON      NM ACGU3       010VISTA          0000000000020900000000217000000002080000000021100000000215+003860000000021100000000215002090000000011491000000000024222790000000000000000000000MOEDA CORRENTE 00000010000000000000BRACGUACNOR61020               0000000386                                            
0202LOTE PADRAO                   GUARARAPES  ON         GUAR3       010VISTA          0000000000169600000001800000000016960000000171500000001740+003880000000165300000001740000260000000000132000000000002263640000000000000000000000MOEDA CORRENTE 00000010000000000000BRGUARACNOR41360               0000000388                                            
0202LOTE PADRAO                   GUARARAPES  PN         GUAR4       010VISTA          0000000000157000000001570000000015700000000157000000001570+004660000000150000000001575000010000000000003000000000000047100000000000000000000000MOEDA CORRENTE 00000010000000000000BRGUARACNPR11360               0000000466                                            
0202LOTE PADRAO                   GVT HOLDING ON      NM GVTT3       010VISTA          0000000000259900000002678000000025880000000262100000002650+003510000000265000000002667012530000000007148000000000187348400000000000000000000000MOEDA CORRENTE 00000010000000000000BRGVTTACNOR81000               0000000351                                            
0202LOTE PADRAO                   HABITASUL   PNA        HBTS5       010VISTA          0000000000035000000000350000000003500000000035000000000350+016660000000025000000000349000010000000000003000000000000010500000000000000000000000MOEDA CORRENTE 00000010000000000000BRHBTSACNPA31140               0000001666                                            
0202LOTE PADRAO                   HELBOR      ON      NM HBOR3       010VISTA          0000000000031000000000330000000003100000000032000000000330+008190000000032400000000330000320000000000370000000000001184480000000000000000000000MOEDA CORRENTE 00000010000000000000BRHBORACNOR31010               0000000819                                            
0202LOTE PADRAO                   HERCULES    ON         HETA3       010VISTA          0000000000000000000000000000000000000000000000000000000000/000000000000004000000000300000000000000000000000000000000000000000000000000000000000MOEDA CORRENTE 00000010000000000000BRHETAACNOR21350               0000000000                                            
